:02000000382A9C
:06000600000000000800EC
:10000C000F3083120313FC004730FD00FD0B0C284E
:0A001C00FC0B0C2800000000080097
:0E002600213083120313FD00FD0B1728080084
:1000340083120313CC1B20288712212887164C1BFC
:100044002528071226280716CC1A2A2887112B28B8
:1000540087154C1A2F28071130280715361834280D
:10006400071435280710871403208710CC193C285F
:1000740087123D2887164C19412807124228071673
:10008400CC1846288711472887154C184B28071188
:100094004C280715361850280714512807108714C0
:1000A40003208710361C58280620592813200800DE
:1000B4008312031336104B08CC001A2036140800A0
:1000C400023083120313FC004930FD00FD0B682845
:0A00D400FC0B682800000000080083
:1000DE00831203137408003A031D7828FF30F000D2
:1000EE00882883120313F8010830FC00700DF80DF8
:1000FE007408F80203188528F8070310F00DFC0B9E
:04010E007D28080040
:10011200040883120313F000710884000008031915
:100122009E28F200040AF100700884007208800020
:10013200040AF000710884008F2870088400080007
:10014200831603178C1CA7280000A128831203130F
:10015200450803178D000313460803178C00831606
:100162008C130C150B08F0008B1355308D00AA3040
:100172008D008C14F01BBF288B13C0288B170C1119
:02018200080073
:10018400831203137008C6004508013A031DD228E0
:100194003030C7003030C8003030C900CA012629C9
:1001A4004508023A031DDE283030C7003030C8004D
:1001B4003130C900CA0126294508033A031DEA283B
:1001C4003030C7003130C8003030C900CA01262998
:1001D4004508043A031DF6283030C7003130C80002
:1001E4003130C900CA0126294508053A031D0229F0
:1001F4003130C7003030C8003030C900CA01262968
:100204004508063A031D0E293130C7003030C800B6
:100214003130C900CA0126294508073A031D1A29A5
:100224003130C7003130C8003030C900CA01262936
:100234004508083A031D26293130C7003130C8006B
:100244003130C900CA012629460884004730F1002C
:0602540089208001080072
:10025A0083120313450803178D0083168C130C149D
:0C026A0083120C08F1007108F00008007D
:10027600831203134608840020308000840A20304D
:100286008000840A30308000840A8001840A0230AB
:100296004607C7004508003A031967290A30F400E3
:1002A6004508F0006F207808F0003030F007470866
:1002B6008400700880000A30F4004508F0006F20C2
:0A02C6007008C500C7034D290800A9
:1002D000831603138710071007118711071287125F
:1002E0008312871007108712071287110711062043
:1002F000062006208715071587140320871006207F
:1003000087140320871006208714032087100620F7
:1003100007118714032087100620871403208710F5
:100320008711871687140320871006208712071568
:1003300087140320871007118714032087100620D5
:1003400087140320871007158714032087100620C1
:1003500007118714032087108716071687150715BE
:0C036000871403208710062036140800C4
:10036C00831203134508013A031DBF298030C500D1
:10037C00D6294508023A031DC629C030C500D62926
:10038C004508033A031DCD299430C500D6294508EC
:10039C00043A031DD429D430C500D6298030C500B9
:1003AC004603F0004508F0077008C5007008CC0043
:1003BC001A203610C8014808470784000008003A84
:1003CC000319F0294808470784000008CB005A207D
:0803DC00C80AE12936140800EB
:1003E40083120313C9014608F1000130F0007108BB
:1003F4000319002AF00D7010FF3EFA294508840005
:1004040070080005F200F1017208003A03190C2A81
:100414000130F10071084806031D352A4708003CE5
:100424000318182A62206220C703102A4608F10024
:100434000130F00071080319232AF00D7010FF3EFB
:100444001D2A4508840070080005F200F1017208B5
:10045400003A03192F2A0130F10071084806031DE0
:0C046400352AFF30C9004908F0000800EC
:10047000831203139F0183169F01031788018901CB
:100480008312031397019D01C03083168500383015
:100490008312850007308316860083128601831637
:1004A00087017F30831287004A30AD004130AE00B3
:1004B0004330AF004B30B0005330B1004F30B2008A
:1004C0004630B3005430B400B5012030A4002030D1
:1004D000A5004C30A6004130A7004230A8005330A0
:1004E000A9002030AA002030AB00AC016821013007
:1004F000CC001A200C30CC001A200130C50001308D
:10050000C6002D30C700B6210230C5000130C6003C
:100510002430C700B62107178230FC00DD30FD0013
:10052000FD0B902AFC0B902A000000000830A1006F
:1005300086189C2A72109D2A72140619A12A031487
:10054000A22A0310721CA82A031CA82A7214A92A22
:100550007210721CAD2A1030A1008618B12A7210D8
:10056000B22A72140619B62A0310B72A0314721C91
:10057000BD2A031CBD2A7214BE2A7210721CC22A24
:100580001830A100C5012D217008FF3A031DD72A9C
:100590008230FC00DD30FD00FD0BCC2AFC0BCC2AA8
:1005A000000000000313C5010130C600A120823005
:1005B000FC00DD30FD00FD0BDB2AFC0BDB2A00001C
:1005C000000083120313C5012D21700803132102BB
:1005D000031CF02AC5012D2170080313A000002B75
:1005E0000130A0008230FC00DD30FD00FD0BF62A5A
:1005F000FC0BF62A00000000C5012008C600A1205F
:1006000083120313A3011430A2000B30FB00263029
:10061000FC005D30FD00FD0B0B2BFC0B0B2BFB0BD3
:100620000B2B000000000130CC001A202030AD0060
:100630005630AE004930AF004430B0004530B10014
:100640004F30B2002030B3002030B400B50120306C
:10065000A4005330A5005730A6004930A7005430FD
:10066000A8004330A9004830AA002030AB00AC01FC
:100670000130C5000130C6002D30C700B621023060
:10068000C5000130C6002430C700B6210530C500C2
:100690000630C6000130C7000130C800F2217008E2
:1006A00003196D2B2108200203185B2BA00AC5013A
:1006B0002008C600A12083120313A30107170430EA
:1006C000FB000C30FC003330FD00FD0B652BFC0BF8
:1006D000652BFB0B652B000000000530C5000730C3
:1006E000C6000130C7000130C800F22170080319AC
:1006F000942B2008013C0318822BA003C50120087D
:10070000C600A12083120313A30107170430FB00C6
:100710000C30FC003330FD00FD0B8C2BFC0B8C2BC4
:10072000FB0B8C2B0000000020083B060319FC2B60
:100730002008BB002008C5003730C6003B2124300C
:10074000840049308000840A4E308000840A503092
:100750008000840A55308000840A54308000840A66
:100760003730F100892080010230C5000130C60019
:100770002430C700B6212008083C031CC42B2008E5
:10078000C00085110516851609302002031CCE2BEA
:1007900008302002C0008515051285161130200290
:1007A000031CD82B10302002C000851505168512B9
:1007B0004008C5004130F000C2203C308400413088
:1007C000F100892080013430FC00F130FD00FD0B88
:1007D000E72BFC0BE72B000000003C18F12B051069
:1007E000F22B05143D18F62B8510F72B85143E18B7
:1007F000FB2B0511FC2B051522082302031C022CE0
:100800000713032CA30A0230FB000430FC00BA30AB
:10081000FD00FD0B092CFC0B092CFB0B092C000027
:04082000462B112C26
:04400E00E4200007A3
:00000001FF
